:2000C90053930CAF9274DF5FF59243932022AA82852682852783E0A37B08D29500003392D9
:2000E900950000C295DBF3E0A37B08D29500003392950000C295DBF3E0A37B08D2950000E4
:0C0109003392950000C295DBF3DACB22A4
:2001150075E200AFE2747F5FF5E243E22975E300AFE274BF5FF5E2AFD174FB5FF5D175D1BF
:200135008043D1012275EE4075EF0075E48075E50075EBCC75D41275D21275EC0075ED0016
:2001550075EA4075DC022243E10443E10243E10143D81FD2EAD2AF22AD82AE83AFF08D825C
:200175008E838FF0120BC5FC60188C82C007C006C005120A0FD005D006D0070DBD00DF0EC0
:1601950080DC2275E10075E206900064120959C2AF02380080FE92
:04000000020049327F
:01000B0032C2
:0100130032BA
:01001B0032B2
:0100230032AA
:01002B0032A2
:01003300329A
:01003B003292
:030043000201BEF9
:2000A200751C00E4F518F519F51AF51B7871760078727600787376007874760078757600AA
:0700C200787676000200468B
:030046000208B8F5
:2001AB0075E10075E206900064120959C2AF02380080FEC020C0E0C0F0C082C083C007C0B4
:2001CB0006C005C004C003C002C001C000C0D075D00020D903020740743F55D9FFBF0003C3
:2001EB000206D8BF0202803ABF200302065ABF2102800DBF22028017BF3002803F02073E73
:20020B0075D300AFD274FC5F4402F5D202073E75D500AFD474FC5F4402F5D47876760002D6
:20022B00073E20DE0302073E7874A6DB78757600AFD474F35F4408F5D402073EAEDB7F00A9
:20024B00BE0805BF0002800302062E900007E0FC7D00900006E0FB7A004DF508EA4CF509F5
:20026B007E007F00900001E0F50A900000E0FD546060787420B50A030206327421B50A0227
:20028B00800A7422B50A030206328058750D00750E01750F00C3E5089440E5099400400689
:2002AB007C407D008004AC08AD098C068D07850D26850E27850F288E298F2A90000075F053
:2002CB0000C007C006120B55D006D007E508C39EF508E5099FF509EE250DF50DEF350EF548
:2002EB000E0206327EFF7F00020632E50A24F55003020628E50A240B83F582E50A240F832D
:20030B00F583E473083D28F52809252816313A0604060406040306040404900003E0FDBD42
:20032B000102800ABD02028014BD0372801E750DE5750E0B750F807E127F008065750DF79A
:20034B00750E0B750F807E437F008056900002E0700F750D3A750E0C750F807E047F008029
:20036B0041900002E0FDBD010F750D68750E0C750F807E187F00802A900002E0FDBD020F7C
:20038B00750D52750E0C750F807E167F008013750D3E750E0C750F807E147F0080047EFFE0
:2003AB007F00C3EE9508EF950950048E088F09C3E5089440E509940040067C407D0080044D
:2003CB00AC08AD098C068D07850D26850E27850F288E298F2A90000075F000C007C0061250
:2003EB000B55D006D007E508C39EF508E5099FF509EE250DF50DEF350EF50E0206329000EE
:20040B0002E0FD8D08750900020632900000E50CF0C3E5089401E509940050030206327E62
:20042B00017F00020632900002E0F50C020632020632900000E0FD541F7033900003E0FC1E
:20044B007D00900002E0FB7A004205EA4204BD0116BC0013900BFEE493FD30E503020632B4
:20046B007EFF7F000206327EFF7F00020632900000E0FD53051FBD026A900004E0FDBD01C9
:20048B0002804FBD02028034BD03028019BD81028034BD82028019BD8342ADD674BC5D440C
:2004AB0002F5D6020632ADD674735DF5D6020632ADD474BC5D4402F5D4020632ADD474739F
:2004CB005DF5D4020632ADD274BC5D4402F5D2020632ADD274735DF5D20206327EFF7F009E
:2004EB000206327EFF7F00020632900000E0FD541F704D900003E0FC7D00900002E0FB7A11
:20050B00004205EA4204BD0130BC002D900BFEE493FD30E51DE5A220E7FB75A15575A1AA8F
:20052B0075A9C143870275A15575A1AA75A9000206327EFF7F000206327EFF7F0002063216
:20054B00900000E0FD53051FBD02028003020602900003E0FC7D00900002E0FB7A00420544
:20056B00EA4204ED4C60030205FC900005E0FC7D00900004E0FB7A004205EA4204BD010590
:20058B00BC0002805DBD0205BC0002803FBD0305BC00028021BD8105BC0002803ABD820551
:2005AB00BC0002801CBD8343BC0040ADD674BF5D4403F5D68071ADD6747F5D440CF5D680D3
:2005CB0066ADD474BF5D4403F5D4805BADD4747F5D440CF5D48050ADD274BF5D4403F5D2D7
:2005EB008045ADD2747F5D440CF5D27EFF7F0080367EFF7F0080307EFF7F00802A900000B1
:20060B00E4F0900001F0C3E5089402E509940040067E027F008010AE08AF09800A7EFF7FE9
:20062B000080047EFF7F00BEFF0CBF0009750AFF75DCCF02073EC374409EE49F40088EDD6E
:20064B0075DCC002073E75DD0075DCC002073E7405B50A0280597406B50A6AC3E508944053
:20066B00E509940040067C407D008004AC08AD098C068D07850D26850E27850F288E298FE6
:20068B002A90000075F000C007C006120B55D006D007E508C39EF508E5099FF509EE250D8E
:2006AB00F50DEF350EF50E8EDD63DC4002073E748055E3FF7E00E5084207E50942068FE340
:2006CB0075DC02806E75DD0075DC0280667420B50A5B30DE5E75260075270075280085DBF5
:2006EB0029752A0090010075F000120B55900100E0FF8F18900101E0FF8F19900102E0FF1D
:20070B008F1A900103E0FF8F1BC3743F951874429519740F951AE4951B500AE4F5187519E2
:20072B00E1F51AF51B75DD0085DCDC800675DD0085DCDCC2D930D82975DC0275D21275D449
:20074B001275E300C2DAC2D9C2D878717600787276007873760078747600750C00787676EC
:20076B000010DA028021E5DA30E21FE5A220E7FB75A15575A1AA75A9C143870275A15575B2
:20078B00A1AA75A900800375D8FFD0D0D000D001D002D003D004D005D006D007D083D08235
:2007AB00D0F0D0E0D02032AF8278718606787106EE2431F8A6077873067871B6400040040B
:2007CB007871760022AD82AE83AFF08D828E838FF0120BC5FC60188C820DBD00010EC007EB
:2007EB00C006C0051207B2D005D006D00780DC22E50C7001227873E66002051C7876E6608C
:20080B0001227873E6FF700122EF24D84006E51C249B506C751C00787286057E008F037C08
:20082B0000EB2DFDEC3EFEC374409D74808EF063F08095F0500778727440C396FF7873E674
:20084B00C39FF67872E62431FE8E267527007528408F29752A009000C075F000C007120BF5
:20086B0055D0077872EF26F67872B640004004787276008FD5AFD474FC5FF5D478767601E4
:20088B00227874E6602678758607787506EF2480F582E43400F583E0F582120A0F78741648
:2008AB007874E67007AFD474F35FF5D42212093090000512095912097B900C8075F08012B3
:2008CB00016D1200C9900C8C75F08012016D120115900C9B75F08012016D12013A900CAAE0
:2008EB0075F08012016D12015C900CC175F08012016D75DD0075D30075D500900CD375F09F
:20090B008012016DD2B21207FBC2B2900CD775F0801207D012088C752607752701758203A0
:05092B001200D780D688
:200BE5001201100102000040861A225700010102030109024300020100A032090400000138
:200C050002020100052400100105240100000424020205240600010705810310004009041D
:200C25000100020A00000007050202400000070582024000000403090414033200300031C4
:200C45000038002D0033002D00310037001603550053004200200074006F002000490032C1
:200C650000430018035A00680069005900750061006E002000570061006E005541525420A7
:200C8500696E69740D0A0062697462616E6753657475700D0A005553424465766963654308
:200CA50066670D0A00555342446576696365456E64506F696E744366670D0A00555342449B
:200CC5006576696365496E744366670D0A006C0D0A0074657374310D0A0000E10000000045
:0A0CE50008FF000000FF000000FF00
:2009300075A15575A1AAAFB974F85F4405F5B975A10022AE82AF83EE4F600D05A105A105BD
:20095000A11EBEFF011F80EF22AE82AF83EE4F60159003E8C007C006120943D006D0071E15
:20097000BEFF011F80E72243C61022C29FD29EC29DC2CDC2CC438780752111752204E4F514
:2009900023F52475260AF527F528F5298521828522838523F0E524120A6DAC828C25752619
:2009B0000AE4F527F528F5298521828522838523F0E524120AF085822185832285F023F504
:2009D0002474FB2525501574012521F521E43522F522E43523F523E43524F524AF89740F3D
:2009F0005F4420F58943C9A0AF21C3E49FF58DD28ED299D29C2210980280FB85998222859B
:200A1000829910990280FB22AF8210990280FB8F992210980280FB8599822243C62022C2CE
:200A3000C7D2C5D2C475C2982210C00280FB85C182228582C110C10280FB22AF8275A155B6
:1D0A500075A1AAEF600543B1018007AFB174FE5FF5B175A10075FF00228582FF224E
:200A6D00F9E52645274528452960777800C308E52920E73BE52625E0F526E52733F527E549
:200A8D002833F528E52933F529E5829526E5839527E5F09528E9952950D4C3E52913F529CD
:200AAD00E52813F528E52713F527E52613F526E5829526FCE5839527FDE5F09528FEE9952B
:200ACD00294007F98EF08D838C82C3E52913F529E52813F528E52713F527E52613F526D879
:030AED00CEE9222D
:200AF000FB7A20E4FCFDFEFFE5822582F582E58333F583E5F033F5F0EB33FB4017DAE9803F
:200B100042E5822582F582E58333F583E5F033F5F0EB33FBEC33FCED33FDEE33FEEF33FF6D
:200B3000EC9526ED9527EE9528EF95294013EC9526FCED9527FDEE9528FEEF9529FF438247
:050B500001DABEEB22FA
:06007800E478FFF6D8FD5C
:200B5500AD82AE83AFF08D2B8E2C8F2D85262E85272F852830A829A92A8803890418B8FF37
:200B75000119EB4C6025852E82852F838530F0120BC5FCA385822E85832F8D828E838FF0ED
:150B9500EC120BAAA3AD82AE8380CE852B82852C83852DF0221D
:200056007910E94400601B7A01900CDF780075A001E493F2A308B8000205A0D9F4DAF27554
:02007600A0FFE9
:1B0BAA0020F71130F6138883A88220F509F6A8837583002280FEF280F5F0224A
:20007E007800E84400600A790075A001E4F309D8FC7800E84400600C7900900100E4F0A380
:04009E00D8FCD9FAB7
:0D004900758176120BE1E58260030200462E
:1C0BC50020F71430F6148883A88220F507E6A88375830022E280F7E49322E0223F
:040BE10075820022F7
:00000001FF
