:18005F00786C7600786D7600786E7600786F760078707600787176005E
:20007A0075E200AFE2747F5FF5E243E22975E300AFE274BF5FF5E2AFD174FB5FF5D175D15B
:20009A008043D1012275EE4075EF0075E48075E50075EBCC75D41275D21275EC0075ED00B2
:2000BA0075EA4075DC022243E10443E10243E10143D81FD2EAD2AF227F00E50C60FC786F53
:2000DA00E6602A78708606787006EE2480F582E43400F583E0F582C007120847D007786F5E
:2000FA0016786FE67007AED474F35EF5D4786EE660010F7871E670C2786EE6FE60BCEE2447
:20011A00D84005EF249B50B27F00786D86047D008E027B00EA2CFCEB3DFDC374409C748044
:20013A008DF063F08095F05007786D7440C396FE786EE6C39EF6786DE6242CFD8D21752209
:20015A00007523408E247525009000C075F000C007C00612095AD006D007786DEE26F67896
:20017A006DB640004004786D76008ED5AED474FC5EF5D4787176010200D4C020C0E0C0F081
:20019A00C082C083C007C006C005C004C003C002C001C000C0D075D00020D9030206A274B5
:2001BA003F55D9FFBF0003020672BF0202803ABF20030205F9BF2102800DBF22028017BF76
:2001DA003002803F0206A075D300AFD274FC5F4402F5D20206A075D500AFD474FC5F44023D
:2001FA00F5D4787176000206A020DE030206A0786FA6DB78707600AFD474F35F4408F5D448
:20021A000206A0AFDBBF080280030205D5900007E0FD7E00900006E0FC7B004EF508EB4D08
:20023A00F5097F00900001E0F50A900000E0FE546060757420B50A030205D77421B50A0236
:20025A00800A7422B50A030205D78057750D00750E01750F00C3E5089408E509940040064F
:20027A007D087E008004AD08AE098D07850D21850E22850F238F2475250090000075F0007C
:20029A00C00712095AD0078F057E00E508C39DF508E5099EF509EF250DF50DE4350EF50EFE
:2002BA000205D77FFF0205D7E50A24F550030205D1E50A240B83F582E50A240F83F583E49E
:2002DA0073B5FCD1ACD1CAF1D1D7F0F90503050405030205030303900003E0FEBE0102806B
:2002FA000ABE02028012BE0366801A750DEA750E09750F807F128059750DFC750E09750FD1
:20031A00807F43804C900002E0700D750D3F750E0A750F807F048039900002E0FEBE010DFC
:20033A00750D6B750E0A750F807F0A8024900002E0FEBE020D750D57750E0A750F807F14BE
:20035A00800F750D43750E0A750F807F1480027FFF8F057E00C3ED9508EE950950048D0837
:20037A008E09C3E5089408E509940040067D087E008004AD08AE098D07850D21850E228544
:20039A000F238F2475250090000075F000C00712095AD0078F057E00E508C39DF508E50972
:2003BA009EF509EF250DF50DE4350EF50E0205D7900002E0FE8E087509000205D79000006A
:2003DA00E50CF0C3E5089401E509940050030205D77F010205D7900002E0F50C0205D70279
:2003FA0005D7900000E0FE541F702F900003E0FD7E00900002E0FC7B004206EB4205BE0177
:20041A0014BD0011900A03E493FE30E5030205D77FFF0205D77FFF0205D7900000E0FE535F
:20043A00061FBE0268900004E0FEBE0102804FBE02028034BE03028019BE81028034BE824C
:20045A00028019BE8342AED674BC5E4402F5D60205D7AED674735EF5D60205D7AED474BC3F
:20047A005E4402F5D40205D7AED474735EF5D40205D7AED274BC5E4402F5D20205D7AED230
:20049A0074735EF5D20205D77FFF0205D77FFF0205D7900000E0FE541F7049900003E0FD96
:2004BA007E00900002E0FC7B004206EB4205BE012EBD002B900A03E493FE30E51DE5A22081
:2004DA00E7FB75A15575A1AA75A9C143870275A15575A1AA75A9000205D77FFF0205D77F48
:2004FA00FF0205D7900000E0FE53061FBE020280030205B1900003E0FD7E00900002E0FCC6
:20051A007B004206EB4205EE4D60030205AD900005E0FD7E00900004E0FC7B004206EB422A
:20053A0005BE0105BD0002805DBE0205BD0002803FBE0305BD00028021BE8105BD00028050
:20055A003ABE8205BD0002801CBE8343BD0040AED674BF5E4403F5D68063AED6747F5E4403
:20057A000CF5D68058AED474BF5E4403F5D4804DAED4747F5E440CF5D48042AED274BF5E03
:20059A004403F5D28037AED2747F5E440CF5D27FFF802A7FFF80267FFF8022900000E4F0C4
:2005BA00900001F0C3E5089402E509940040047F02800AAF0880067FFF80027FFFBFFF0907
:2005DA00750AFF75DCCF0206A0EF24F740088FDD75DCC00206A075DD0075DCC00206A074C5
:2005FA0005B50A0280547406B50A65C3E5089408E509940040067E087F008004AE08AF099E
:20061A00850D21850E22850F238E248F2590000075F000C007C00612095AD006D007E508AA
:20063A00C39EF508E5099FF509EE250DF50DEF350EF50E8EDD63DC40804C748055E3FF7E01
:20065A0000E5084207E50942068FE375DC02803675DD0075DC02802E7420B50A2330DE269C
:20067A0075210075220075230085DB2475250090010075F00012095A75DD0085DCDC8006FD
:20069A0075DD0043DC02C2D930D82975DC0275D21275D41275E300C2DAC2D9C2D8786C7677
:2006BA0000786D7600786E7600786F7600750C007871760010DA028021E5DA30E21FE5A228
:2006DA0020E7FB75A15575A1AA75A9C143870275A15575A1AA75A900800375D8FFD0D0D0A0
:1A06FA0000D001D002D003D004D005D006D007D083D082D0F0D0E0D02032E3
:2009EA001201100102000008861A225700010102030109024300020100A03209040000016D
:200A0A000202010005240010010524010000042402020524060001070581030800FF090463
:200A2A000100020A00000007050202400000070582024000000403090414033200300031C1
:200A4A000037002D0032002D00320035001403430048003500350034005F004300440043F9
:120A6A00000A035F6CCF82816C526000E10000000008C9
:03000000020006F5
:0300770002000381
:03000300020714DD
:2007140012073590000512075E12078012007A12009F1200C175DD0075D30075D5000200DC
:01073400D2F2
:2007350075A15575A1AAAFB974F85F4405F5B975A10022AE82AF83EE4F600D05A105A105BA
:20075500A11EBEFF011F80EF22AE82AF83EE4F60159003E8C007C006120748D006D0071E0F
:20077500BEFF011F80E72243C61022C29FD29EC29DC2CDC2CC438780751811751904E4F523
:200795001AF51B75210AF522F523F524851882851983851AF0E51B120872AC828C1C75216B
:2007B5000AE4F522F523F524851882851983851AF0E51B1208F585821885831985F01AF54C
:2007D5001B74FB251C501574012518F518E43519F519E4351AF51AE4351BF51BAF89740F94
:2007F5005F4420F58943C9A0AF18C3E49FF58DD28ED299D29C2210980280FB8599822285A1
:20081500829910990280FB22AF8210990280FB8F992210980280FB8599822243C62022C2CB
:20083500C7D2C5D2C475C2982210C00280FB85C182228582C110C10280FB22AF8275A155B3
:1D08550075A1AAEF600543B1018007AFB174FE5FF5B175A10075FF00228582FF224B
:20087200F9E52145224523452460777800C308E52420E73BE52125E0F521E52233F522E573
:200892002333F523E52433F524E5829521E5839522E5F09523E9952450D4C3E52413F524FC
:2008B200E52313F523E52213F522E52113F521E5829521FCE5839522FDE5F09523FEE99555
:2008D200244007F98EF08D838C82C3E52413F524E52313F523E52213F522E52113F521D8A3
:0308F200CEE9222A
:2008F500FB7A20E4FCFDFEFFE5822582F582E58333F583E5F033F5F0EB33FB4017DAE9803C
:2009150042E5822582F582E58333F583E5F033F5F0EB33FBEC33FCED33FDEE33FEEF33FF6A
:20093500EC9521ED9522EE9523EF95244013EC9521FCED9522FDEE9523FEEF9524FF43826C
:0509550001DABEEB22F7
:06003500E478FFF6D8FD9F
:20095A00AD82AE83AFF08D268E278F2885212985222A85232BA824A9258803890418B8FF6B
:20097A000119EB4C6025852982852A83852BF01209CAFCA385822985832A8D828E838FF000
:15099A00EC1209AFA3AD82AE8380CE8526828527838528F02226
:200013007907E94400601B7A01900A75780075A001E493F2A308B8000205A0D9F4DAF2750C
:02003300A0FF2C
:1B09AF0020F71130F6138883A88220F509F6A8837583002280FEF280F5F02247
:20003B007800E84400600A790075A001E4F309D8FC7800E84400600C7900900100E4F0A3C3
:04005B00D8FCD9FAFA
:0D0006007581711209E6E5826003020003B6
:1C09CA0020F71430F6148883A88220F507E6A88375830022E280F7E49322E0223C
:0409E60075820022F4
:00000001FF
