:2000860075E200AFE2747F5FF5E243E22975E300AFE274BF5FF5E2AFD174FB5FF5D175D14F
:2000A6008043D1012275EE4075EF0075E48075E50075EBCC75D41275D21275EC0075ED00A6
:2000C60075EA4075DC022243E10443E10243E10143D81FD2EAD2AF22AD82AE83AFF08D82EC
:2000E6008E838FF0120AE1FC60188C82C007C006C00512092BD005D006D0070DBD00DF0E1A
:1601060080DC2275E10075E206900064120875C2AF02380080FE06
:03000000020006F5
:0300830002000375
:03000300020129CE
:20011C00D2B2C2B2900B0175F08002076412084C9000051208751208971200861200AB123B
:16013C0000CD75DD0075D30075D50012011C12078F12082080F576
:080B010074657374310D0A00E4
:20005F00751C00E4F518F519F51AF51B7871760078727600787376007874760078757600ED
:04007F007876760019
:20015200C020C0E0C0F0C082C083C007C006C005C004C003C002C001C000C0D075D00020C7
:20017200D9030206D4743F55D9FFBF000302066CBF0202803ABF20030205EEBF2102800DDC
:20019200BF22028017BF3002803F0206D275D300AFD274FC5F4402F5D20206D275D500AFD1
:2001B200D474FC5F4402F5D4787676000206D220DE030206D27874A6DB78757600AFD4749B
:2001D200F35F4408F5D40206D2AEDB7F00BE0805BF000280030205C2900007E0FC7D00906C
:2001F2000006E0FB7A004DF508EA4CF5097E007F00900001E0F50A900000E0FD54606078AE
:200212007420B50A030205C67421B50A02800A7422B50A030205C68058750D00750E017551
:200232000F00C3E5089440E509940040067C407D008004AC08AD098C068D07850D26850EB9
:2002520027850F288E298F2A90000075F000C007C006120A71D006D007E508C39EF508E54D
:20027200099FF509EE250DF50DEF350EF50E0205C67EFF7F000205C6E50A24F55003020577
:20029200BCE50A240B83F582E50A240F83F583E4739CD1BC89BC9DB9BCAAC5CE0503050436
:2002B20005030205030303900003E0FDBD0102800ABD02028014BD0372801E750D09750E27
:2002D2000B750F807E127F008065750D1B750E0B750F807E437F008056900002E0700F755E
:2002F2000D5E750E0B750F807E047F008041900002E0FDBD010F750D8C750E0B750F807ED3
:20031200187F00802A900002E0FDBD020F750D76750E0B750F807E167F008013750D6275C4
:200332000E0B750F807E147F0080047EFF7F00C3EE9508EF950950048E088F09C3E508945C
:2003520040E509940040067C407D008004AC08AD098C068D07850D26850E27850F288E2951
:200372008F2A90000075F000C007C006120A71D006D007E508C39EF508E5099FF509EE250D
:200392000DF50DEF350EF50E0205C6900002E0FD8D087509000205C6900000E50CF0C3E5D2
:2003B200089401E509940050030205C67E017F000205C6900002E0F50C0205C60205C69084
:2003D2000000E0FD541F7033900003E0FC7D00900002E0FB7A004205EA4204BD0116BC003E
:2003F20013900B22E493FD30E5030205C67EFF7F000205C67EFF7F000205C6900000E0FDC3
:2004120053051FBD026A900004E0FDBD0102804FBD02028034BD03028019BD81028034BDA9
:2004320082028019BD8342ADD674BC5D4402F5D60205C6ADD674735DF5D60205C6ADD474C9
:20045200BC5D4402F5D40205C6ADD474735DF5D40205C6ADD274BC5D4402F5D20205C6ADA7
:20047200D274735DF5D20205C67EFF7F000205C67EFF7F000205C6900000E0FD541F704D91
:20049200900003E0FC7D00900002E0FB7A004205EA4204BD0130BC002D900B22E493FD30C8
:2004B200E51DE5A220E7FB75A15575A1AA75A9C143870275A15575A1AA75A9000205C67E35
:2004D200FF7F000205C67EFF7F000205C6900000E0FD53051FBD020280030205969000039E
:2004F200E0FC7D00900002E0FB7A004205EA4204ED4C6003020590900005E0FC7D00900082
:2005120004E0FB7A004205EA4204BD0105BC0002805DBD0205BC0002803FBD0305BC0002D7
:200532008021BD8105BC0002803ABD8205BC0002801CBD8343BC0040ADD674BF5D4403F5E1
:20055200D68071ADD6747F5D440CF5D68066ADD474BF5D4403F5D4805BADD4747F5D440CD1
:20057200F5D48050ADD274BF5D4403F5D28045ADD2747F5D440CF5D27EFF7F0080367EFFD9
:200592007F0080307EFF7F00802A900000E4F0900001F0C3E5089402E509940040067E0201
:2005B2007F008010AE08AF09800A7EFF7F0080047EFF7F00BEFF0CBF0009750AFF75DCCF77
:2005D2000206D2C374409EE49F40088EDD75DCC00206D275DD0075DCC00206D27405B50A84
:2005F2000280597406B50A6AC3E5089440E509940040067C407D008004AC08AD098C068DD9
:2006120007850D26850E27850F288E298F2A90000075F000C007C006120A71D006D007E582
:2006320008C39EF508E5099FF509EE250DF50DEF350EF50E8EDD63DC400206D2748055E370
:20065200FF7E00E5084207E50942068FE375DC02806E75DD0075DC0280667420B50A5B3083
:20067200DE5E75260075270075280085DB29752A0090010075F000120A71900100E0FF8FAE
:2006920018900101E0FF8F19900102E0FF8F1A900103E0FF8F1BC3743F95187442951974E4
:2006B2000F951AE4951B500AE4F5187519E1F51AF51B75DD0085DCDC800675DD0085DCDC59
:2006D200C2D930D82975DC0275D21275D41275E300C2DAC2D9C2D8787176007872760078D5
:2006F20073760078747600750C007876760010DA028021E5DA30E21FE5A220E7FB75A15547
:2007120075A1AA75A9C143870275A15575A1AA75A900800375D8FFD0D0D000D001D002D061
:2007320003D004D005D006D007D083D082D0F0D0E0D02032AF8278718606787106EE24313F
:20075200F8A6077873067871B6400040047871760022AD82AE83AFF08D828E838FF0120A93
:20077200E1FC60188C820DBD00010EC007C006C005120746D005D006D00780DC22E50C7019
:2007920001227873E66002051C7876E66001227873E6FF700122EF24D84006E51C249B50D5
:2007B2006C751C00787286057E008F037C00EB2DFDEC3EFEC374409D74808EF063F08095FE
:2007D200F0500778727440C396FF7873E6C39FF67872E62431FE8E267527007528408F2999
:2007F200752A009000C075F000C007120A71D0077872EF26F67872B64000400478727600EF
:200812008FD5AFD474FC5FF5D478767601227874E6602678758607787506EF2480F582E40D
:1A0832003400F583E0F58212092B7874167874E67007AFD474F35FF5D422E4
:200B09001201100102000040861A225700010102030109024300020100A032090400000114
:200B29000202010005240010010524010000042402020524060001070581031000400904FA
:200B49000100020A00000007050202400000070582024000000403090414033200300031A1
:200B69000038002D0033002D00310037001603550053004200200074006F0020004900329E
:200B890000430018035A00680069005900750061006E002000570061006E0000E1000000FF
:020BA900000842
:20084C0075A15575A1AAAFB974F85F4405F5B975A10022AE82AF83EE4F600D05A105A105A2
:20086C00A11EBEFF011F80EF22AE82AF83EE4F60159003E8C007C00612085FD006D0071EDF
:20088C00BEFF011F80E72243C61022C29FD29EC29DC2CDC2CC438780752111752204E4F5F9
:2008AC0023F52475260AF527F528F5298521828522838523F0E524120989AC828C257526E3
:2008CC000AE4F527F528F5298521828522838523F0E524120A0C85822185832285F023F5CD
:2008EC002474FB2525501574012521F521E43522F522E43523F523E43524F524AF89740F22
:20090C005F4420F58943C9A0AF21C3E49FF58DD28ED299D29C2210980280FB85998222857F
:20092C00829910990280FB22AF8210990280FB8F992210980280FB8599822243C62022C2B3
:20094C00C7D2C5D2C475C2982210C00280FB85C182228582C110C10280FB22AF8275A1559B
:1D096C0075A1AAEF600543B1018007AFB174FE5FF5B175A10075FF00228582FF2233
:20098900F9E52645274528452960777800C308E52920E73BE52625E0F526E52733F527E52E
:2009A9002833F528E52933F529E5829526E5839527E5F09528E9952950D4C3E52913F529B2
:2009C900E52813F528E52713F527E52613F526E5829526FCE5839527FDE5F09528FEE99510
:2009E900294007F98EF08D838C82C3E52913F529E52813F528E52713F527E52613F526D85E
:030A0900CEE92211
:200A0C00FB7A20E4FCFDFEFFE5822582F582E58333F583E5F033F5F0EB33FB4017DAE98023
:200A2C0042E5822582F582E58333F583E5F033F5F0EB33FBEC33FCED33FDEE33FEEF33FF52
:200A4C00EC9526ED9527EE9528EF95294013EC9526FCED9527FDEE9528FEEF9529FF43822C
:050A6C0001DABEEB22DF
:06003500E478FFF6D8FD9F
:200A7100AD82AE83AFF08D2B8E2C8F2D85262E85272F852830A829A92A8803890418B8FF1C
:200A91000119EB4C6025852E82852F838530F0120AE1FCA385822E85832F8D828E838FF0B7
:150AB100EC120AC6A3AD82AE8380CE852B82852C83852DF022E7
:200013007907E94400601B7A01900BA4780075A001E493F2A308B8000205A0D9F4DAF275DC
:02003300A0FF2C
:1B0AC60020F71130F6138883A88220F509F6A8837583002280FEF280F5F0222F
:20003B007800E84400600A790075A001E4F309D8FC7800E84400600C7900900100E4F0A3C3
:04005B00D8FCD9FAFA
:0D000600758176120AFDE582600302000399
:1C0AE10020F71430F6148883A88220F507E6A88375830022E280F7E49322E02224
:040AFD0075820022DC
:00000001FF
