:2000C90075E200AFE2747F5FF5E243E22975E300AFE274BF5FF5E2AFD174FB5FF5D175D10C
:2000E9008043D1012275EE4075EF0075E48075E50075EBCC75D41275D21275EC0075ED0063
:2001090075EA4075DC022243E10443E10243E10143D81FD2EAD2AF22AD82AE83AFF08D82A8
:200129008E838FF0120B61FC60188C82C007C006C0051209ABD005D006D0070DBD00DF0ED5
:1601490080DC2275E10075E2069000641208F5C2AF02380080FE43
:04000000020049327F
:01000B0032C2
:0100130032BA
:01001B0032B2
:0100230032AA
:01002B0032A2
:01003300329A
:01003B003292
:0300430002017245
:2000A200751C00E4F518F519F51AF51B7871760078727600787376007874760078757600AA
:0700C200787676000200468B
:0300460002086C41
:20015F0075E10075E2069000641208F5C2AF02380080FEC020C0E0C0F0C082C083C007C065
:20017F0006C005C004C003C002C001C000C0D075D00020D9030206F4743F55D9FFBF00035C
:20019F0002068CBF0202803ABF200302060EBF2102800DBF22028017BF3002803F0206F2A4
:2001BF0075D300AFD274FC5F4402F5D20206F275D500AFD474FC5F4402F5D4787676000270
:2001DF0006F220DE030206F27874A6DB78757600AFD474F35F4408F5D40206F2AEDB7F00DD
:2001FF00BE0805BF000280030205E2900007E0FC7D00900006E0FB7A004DF508EA4CF5098F
:20021F007E007F00900001E0F50A900000E0FD546060787420B50A030205E67421B50A02C0
:20023F00800A7422B50A030205E68058750D00750E01750F00C3E5089440E5099400400622
:20025F007C407D008004AC08AD098C068D07850D26850E27850F288E298F2A90000075F09F
:20027F0000C007C006120AF1D006D007E508C39EF508E5099FF509EE250DF50DEF350EF5F9
:20029F000E0205E67EFF7F000205E6E50A24F550030205DCE50A240B83F582E50A240F8360
:2002BF00F583E473BCF1DCA9DCBDD9DCCAE5EE0503050405030205030303900003E0FDBDDD
:2002DF000102800ABD02028014BD0372801E750D81750E0B750F807E127F008065750D93AF
:2002FF00750E0B750F807E437F008056900002E0700F750DD6750E0B750F807E047F0080DB
:20031F0041900002E0FDBD010F750D04750E0C750F807E187F00802A900002E0FDBD020F2C
:20033F00750DEE750E0B750F807E167F008013750DDA750E0B750F807E147F0080047EFFF6
:20035F007F00C3EE9508EF950950048E088F09C3E5089440E509940040067C407D00800499
:20037F00AC08AD098C068D07850D26850E27850F288E298F2A90000075F000C007C006129C
:20039F000AF1D006D007E508C39EF508E5099FF509EE250DF50DEF350EF50E0205E69000EC
:2003BF0002E0FD8D087509000205E6900000E50CF0C3E5089401E509940050030205E67E49
:2003DF00017F000205E6900002E0F50C0205E60205E6900000E0FD541F7033900003E0FC52
:2003FF007D00900002E0FB7A004205EA4204BD0116BC0013900B9AE493FD30E5030205E6B2
:20041F007EFF7F000205E67EFF7F000205E6900000E0FD53051FBD026A900004E0FDBD01AF
:20043F0002804FBD02028034BD03028019BD81028034BD82028019BD8342ADD674BC5D4458
:20045F0002F5D60205E6ADD674735DF5D60205E6ADD474BC5D4402F5D40205E6ADD47473D2
:20047F005DF5D40205E6ADD274BC5D4402F5D20205E6ADD274735DF5D20205E67EFF7F00D1
:20049F000205E67EFF7F000205E6900000E0FD541F704D900003E0FC7D00900002E0FB7AF7
:2004BF00004205EA4204BD0130BC002D900B9AE493FD30E51DE5A220E7FB75A15575A1AA40
:2004DF0075A9C143870275A15575A1AA75A9000205E67EFF7F000205E67EFF7F000205E64A
:2004FF00900000E0FD53051FBD020280030205B6900003E0FC7D00900002E0FB7A004205DE
:20051F00EA4204ED4C60030205B0900005E0FC7D00900004E0FB7A004205EA4204BD010528
:20053F00BC0002805DBD0205BC0002803FBD0305BC00028021BD8105BC0002803ABD82059D
:20055F00BC0002801CBD8343BC0040ADD674BF5D4403F5D68071ADD6747F5D440CF5D6801F
:20057F0066ADD474BF5D4403F5D4805BADD4747F5D440CF5D48050ADD274BF5D4403F5D223
:20059F008045ADD2747F5D440CF5D27EFF7F0080367EFF7F0080307EFF7F00802A900000FD
:2005BF00E4F0900001F0C3E5089402E509940040067E027F008010AE08AF09800A7EFF7F36
:2005DF000080047EFF7F00BEFF0CBF0009750AFF75DCCF0206F2C374409EE49F40088EDD08
:2005FF0075DCC00206F275DD0075DCC00206F27405B50A0280597406B50A6AC3E50894403A
:20061F00E509940040067C407D008004AC08AD098C068D07850D26850E27850F288E298F32
:20063F002A90000075F000C007C006120AF1D006D007E508C39EF508E5099FF509EE250D3F
:20065F00F50DEF350EF50E8EDD63DC400206F2748055E3FF7E00E5084207E50942068FE3D9
:20067F0075DC02806E75DD0075DC0280667420B50A5B30DE5E75260075270075280085DB41
:20069F0029752A0090010075F000120AF1900100E0FF8F18900101E0FF8F19900102E0FFCE
:2006BF008F1A900103E0FF8F1BC3743F951874429519740F951AE4951B500AE4F51875192F
:2006DF00E1F51AF51B75DD0085DCDC800675DD0085DCDCC2D930D82975DC0275D21275D496
:2006FF001275E300C2DAC2D9C2D878717600787276007873760078747600750C0078767639
:20071F000010DA028021E5DA30E21FE5A220E7FB75A15575A1AA75A9C143870275A15575FE
:20073F00A1AA75A900800375D8FFD0D0D000D001D002D003D004D005D006D007D083D08281
:20075F00D0F0D0E0D02032AF8278718606787106EE2431F8A6077873067871B64000400457
:20077F007871760022AD82AE83AFF08D828E838FF0120B61FC60188C820DBD00010EC0079B
:20079F00C006C005120766D005D006D00780DC22E50C7001227873E66002051C7876E66024
:2007BF0001227873E6FF700122EF24D84006E51C249B506C751C00787286057E008F037C55
:2007DF0000EB2DFDEC3EFEC374409D74808EF063F08095F0500778727440C396FF7873E6C1
:2007FF00C39FF67872E62431FE8E267527007528408F29752A009000C075F000C007120A43
:20081F00F1D0077872EF26F67872B640004004787276008FD5AFD474FC5FF5D47876760194
:20083F00227874E6602678758607787506EF2480F582E43400F583E0F5821209AB787416F9
:20085F007874E67007AFD474F35FF5D4221208CC9000051208F5120917900C1C75F0801291
:20087F0001211200C9900C2875F0801201211200EE900C3775F080120121120110900C4E86
:20089F0075F08012012175DD0075D30075D500900C6075F080120121D2B21207AFC2B290D7
:0D08BF000C6475F08012078412084080E27E
:200B81001201100102000040861A225700010102030109024300020100A03209040000019C
:200BA100020201000524001001052401000004240202052406000107058103100040090482
:200BC1000100020A0000000705020240000007058202400000040309041403320030003129
:200BE1000038002D0033002D00310037001603550053004200200074006F00200049003226
:200C010000430018035A00680069005900750061006E002000570061006E0055415254200B
:200C2100696E69740D0A005553424465766963654366670D0A005553424465766963654508
:200C41006E64506F696E744366670D0A00555342446576696365496E744366670D0A006C98
:120C61000D0A0074657374310D0A0000E1000000000879
:2008CC0075A15575A1AAAFB974F85F4405F5B975A10022AE82AF83EE4F600D05A105A10522
:2008EC00A11EBEFF011F80EF22AE82AF83EE4F60159003E8C007C0061208DFD006D0071EDF
:20090C00BEFF011F80E72243C61022C29FD29EC29DC2CDC2CC438780752111752204E4F578
:20092C0023F52475260AF527F528F5298521828522838523F0E524120A09AC828C257526E1
:20094C000AE4F527F528F5298521828522838523F0E524120A8C85822185832285F023F5CC
:20096C002474FB2525501574012521F521E43522F522E43523F523E43524F524AF89740FA1
:20098C005F4420F58943C9A0AF21C3E49FF58DD28ED299D29C2210980280FB8599822285FF
:2009AC00829910990280FB22AF8210990280FB8F992210980280FB8599822243C62022C233
:2009CC00C7D2C5D2C475C2982210C00280FB85C182228582C110C10280FB22AF8275A1551B
:1D09EC0075A1AAEF600543B1018007AFB174FE5FF5B175A10075FF00228582FF22B3
:200A0900F9E52645274528452960777800C308E52920E73BE52625E0F526E52733F527E5AD
:200A29002833F528E52933F529E5829526E5839527E5F09528E9952950D4C3E52913F52931
:200A4900E52813F528E52713F527E52613F526E5829526FCE5839527FDE5F09528FEE9958F
:200A6900294007F98EF08D838C82C3E52913F529E52813F528E52713F527E52613F526D8DD
:030A8900CEE92291
:200A8C00FB7A20E4FCFDFEFFE5822582F582E58333F583E5F033F5F0EB33FB4017DAE980A3
:200AAC0042E5822582F582E58333F583E5F033F5F0EB33FBEC33FCED33FDEE33FEEF33FFD2
:200ACC00EC9526ED9527EE9528EF95294013EC9526FCED9527FDEE9528FEEF9529FF4382AC
:050AEC0001DABEEB225F
:06007800E478FFF6D8FD5C
:200AF100AD82AE83AFF08D2B8E2C8F2D85262E85272F852830A829A92A8803890418B8FF9C
:200B11000119EB4C6025852E82852F838530F0120B61FCA385822E85832F8D828E838FF0B5
:150B3100EC120B46A3AD82AE8380CE852B82852C83852DF022E5
:200056007907E94400601B7A01900C6C780075A001E493F2A308B8000205A0D9F4DAF275D0
:02007600A0FFE9
:1B0B460020F71130F6138883A88220F509F6A8837583002280FEF280F5F022AE
:20007E007800E84400600A790075A001E4F309D8FC7800E84400600C7900900100E4F0A380
:04009E00D8FCD9FAB7
:0D004900758176120B7DE582600302004692
:1C0B610020F71430F6148883A88220F507E6A88375830022E280F7E49322E022A3
:040B7D00758200225B
:00000001FF
