:2000C90075E200AFE2747F5FF5E243E22975E300AFE274BF5FF5E2AFD174FB5FF5D175D10C
:2000E9008043D1012275EE4075EF0075E48075E50075EBCC75D41275D21275EC0075ED0063
:2001090075EA4075DC022243E10443E10243E10143D81FD2EAD2AF22AD82AE83AFF08D82A8
:200129008E838FF0120B21FC60188C82C007C006C00512096BD005D006D0070DBD00DF0E55
:0301490080DC2235
:04000000020049327F
:01000B0032C2
:0100130032BA
:01001B0032B2
:0100230032AA
:01002B0032A2
:01003300329A
:01003B003292
:0300430002015F58
:2000A200751C00E4F518F519F51AF51B7871760078727600787376007874760078757600AA
:0700C200787676000200468B
:0300460002085954
:20014C0075E10075E2069000641208B5C2AF02380080FEC020C0E0C0F0C082C083C007C0B8
:20016C0006C005C004C003C002C001C000C0D075D00020D9030206E1743F55D9FFBF000382
:20018C00020679BF0202803ABF20030205FBBF2102800DBF22028017BF3002803F0206DFF1
:2001AC0075D300AFD274FC5F4402F5D20206DF75D500AFD474FC5F4402F5D4787676000296
:2001CC0006DF20DE030206DF7874A6DB78757600AFD474F35F4408F5D40206DFAEDB7F0029
:2001EC00BE0805BF000280030205CF900007E0FC7D00900006E0FB7A004DF508EA4CF509B5
:20020C007E007F00900001E0F50A900000E0FD546060787420B50A030205D37421B50A02E6
:20022C00800A7422B50A030205D38058750D00750E01750F00C3E5089440E5099400400648
:20024C007C407D008004AC08AD098C068D07850D26850E27850F288E298F2A90000075F0B2
:20026C0000C007C006120AB1D006D007E508C39EF508E5099FF509EE250DF50DEF350EF54C
:20028C000E0205D37EFF7F000205D3E50A24F550030205C9E50A240B83F582E50A240F83AC
:2002AC00F583E473A9DEC996C9AAC6C9B7D2DB0503050405030205030303900003E0FDBDC1
:2002CC000102800ABD02028014BD0372801E750D41750E0B750F807E127F008065750D5342
:2002EC00750E0B750F807E437F008056900002E0700F750D96750E0B750F807E047F00802E
:20030C0041900002E0FDBD010F750DC4750E0B750F807E187F00802A900002E0FDBD020F80
:20032C00750DAE750E0B750F807E167F008013750D9A750E0B750F807E147F0080047EFF89
:20034C007F00C3EE9508EF950950048E088F09C3E5089440E509940040067C407D008004AC
:20036C00AC08AD098C068D07850D26850E27850F288E298F2A90000075F000C007C00612AF
:20038C000AB1D006D007E508C39EF508E5099FF509EE250DF50DEF350EF50E0205D3900052
:2003AC0002E0FD8D087509000205D3900000E50CF0C3E5089401E509940050030205D37E82
:2003CC00017F000205D3900002E0F50C0205D30205D3900000E0FD541F7033900003E0FC9E
:2003EC007D00900002E0FB7A004205EA4204BD0116BC0013900B5AE493FD30E5030205D318
:20040C007EFF7F000205D37EFF7F000205D3900000E0FD53051FBD026A900004E0FDBD01E8
:20042C0002804FBD02028034BD03028019BD81028034BD82028019BD8342ADD674BC5D446B
:20044C0002F5D60205D3ADD674735DF5D60205D3ADD474BC5D4402F5D40205D3ADD474731E
:20046C005DF5D40205D3ADD274BC5D4402F5D20205D3ADD274735DF5D20205D37EFF7F001D
:20048C000205D37EFF7F000205D3900000E0FD541F704D900003E0FC7D00900002E0FB7A30
:2004AC00004205EA4204BD0130BC002D900B5AE493FD30E51DE5A220E7FB75A15575A1AA93
:2004CC0075A9C143870275A15575A1AA75A9000205D37EFF7F000205D37EFF7F000205D396
:2004EC00900000E0FD53051FBD020280030205A3900003E0FC7D00900002E0FB7A00420504
:20050C00EA4204ED4C600302059D900005E0FC7D00900004E0FB7A004205EA4204BD01054E
:20052C00BC0002805DBD0205BC0002803FBD0305BC00028021BD8105BC0002803ABD8205B0
:20054C00BC0002801CBD8343BC0040ADD674BF5D4403F5D68071ADD6747F5D440CF5D68032
:20056C0066ADD474BF5D4403F5D4805BADD4747F5D440CF5D48050ADD274BF5D4403F5D236
:20058C008045ADD2747F5D440CF5D27EFF7F0080367EFF7F0080307EFF7F00802A90000010
:2005AC00E4F0900001F0C3E5089402E509940040067E027F008010AE08AF09800A7EFF7F49
:2005CC000080047EFF7F00BEFF0CBF0009750AFF75DCCF0206DFC374409EE49F40088EDD2E
:2005EC0075DCC00206DF75DD0075DCC00206DF7405B50A0280597406B50A6AC3E508944073
:20060C00E509940040067C407D008004AC08AD098C068D07850D26850E27850F288E298F45
:20062C002A90000075F000C007C006120AB1D006D007E508C39EF508E5099FF509EE250D92
:20064C00F50DEF350EF50E8EDD63DC400206DF748055E3FF7E00E5084207E50942068FE3FF
:20066C0075DC02806E75DD0075DC0280667420B50A5B30DE5E75260075270075280085DB54
:20068C0029752A0090010075F000120AB1900100E0FF8F18900101E0FF8F19900102E0FF21
:2006AC008F1A900103E0FF8F1BC3743F951874429519740F951AE4951B500AE4F518751942
:2006CC00E1F51AF51B75DD0085DCDC800675DD0085DCDCC2D930D82975DC0275D21275D4A9
:2006EC001275E300C2DAC2D9C2D878717600787276007873760078747600750C007876764C
:20070C000010DA028021E5DA30E21FE5A220E7FB75A15575A1AA75A9C143870275A1557511
:20072C00A1AA75A900800375D8FFD0D0D000D001D002D003D004D005D006D007D083D08294
:20074C00D0F0D0E0D02032AF8278718606787106EE2431F8A6077873067871B6400040046A
:20076C007871760022AD82AE83AFF08D828E838FF0120B21FC60188C820DBD00010EC007EE
:20078C00C006C005120753D005D006D00780DC22E50C7001227873E66002051C7876E6604A
:2007AC0001227873E6FF700122EF24D84006E51C249B506C751C00787286057E008F037C68
:2007CC0000EB2DFDEC3EFEC374409D74808EF063F08095F0500778727440C396FF7873E6D4
:2007EC00C39FF67872E62431FE8E267527007528408F29752A009000C075F000C007120A56
:20080C00B1D0077872EF26F67872B640004004787276008FD5AFD474FC5FF5D478767601E7
:20082C00227874E6602678758607787506EF2480F582E43400F583E0F58212096B7874164C
:20084C007874E67007AFD474F35FF5D42212088C9000051208B51208D71200C91200EE1227
:20086C00011075DD0075D30075D500D2B212079CC2B2900BDC75F08012077112082D80EB32
:200B41001201100102000040861A225700010102030109024300020100A0320904000001DC
:200B61000202010005240010010524010000042402020524060001070581031000400904C2
:200B81000100020A0000000705020240000007058202400000040309041403320030003169
:200BA1000038002D0033002D00310037001603550053004200200074006F00200049003266
:200BC10000430018035A00680069005900750061006E002000570061006E007465737431B7
:0A0BE1000D0A0000E100000000080A
:20088C0075A15575A1AAAFB974F85F4405F5B975A10022AE82AF83EE4F600D05A105A10562
:2008AC00A11EBEFF011F80EF22AE82AF83EE4F60159003E8C007C00612089FD006D0071E5F
:2008CC00BEFF011F80E72243C61022C29FD29EC29DC2CDC2CC438780752111752204E4F5B9
:2008EC0023F52475260AF527F528F5298521828522838523F0E5241209C9AC828C25752663
:20090C000AE4F527F528F5298521828522838523F0E524120A4C85822185832285F023F54C
:20092C002474FB2525501574012521F521E43522F522E43523F523E43524F524AF89740FE1
:20094C005F4420F58943C9A0AF21C3E49FF58DD28ED299D29C2210980280FB85998222853F
:20096C00829910990280FB22AF8210990280FB8F992210980280FB8599822243C62022C273
:20098C00C7D2C5D2C475C2982210C00280FB85C182228582C110C10280FB22AF8275A1555B
:1D09AC0075A1AAEF600543B1018007AFB174FE5FF5B175A10075FF00228582FF22F3
:2009C900F9E52645274528452960777800C308E52920E73BE52625E0F526E52733F527E5EE
:2009E9002833F528E52933F529E5829526E5839527E5F09528E9952950D4C3E52913F52972
:200A0900E52813F528E52713F527E52613F526E5829526FCE5839527FDE5F09528FEE995CF
:200A2900294007F98EF08D838C82C3E52913F529E52813F528E52713F527E52613F526D81D
:030A4900CEE922D1
:200A4C00FB7A20E4FCFDFEFFE5822582F582E58333F583E5F033F5F0EB33FB4017DAE980E3
:200A6C0042E5822582F582E58333F583E5F033F5F0EB33FBEC33FCED33FDEE33FEEF33FF12
:200A8C00EC9526ED9527EE9528EF95294013EC9526FCED9527FDEE9528FEEF9529FF4382EC
:050AAC0001DABEEB229F
:06007800E478FFF6D8FD5C
:200AB100AD82AE83AFF08D2B8E2C8F2D85262E85272F852830A829A92A8803890418B8FFDC
:200AD1000119EB4C6025852E82852F838530F0120B21FCA385822E85832F8D828E838FF036
:150AF100EC120B06A3AD82AE8380CE852B82852C83852DF02266
:200056007907E94400601B7A01900BE4780075A001E493F2A308B8000205A0D9F4DAF27559
:02007600A0FFE9
:1B0B060020F71130F6138883A88220F509F6A8837583002280FEF280F5F022EE
:20007E007800E84400600A790075A001E4F309D8FC7800E84400600C7900900100E4F0A380
:04009E00D8FCD9FAB7
:0D004900758176120B3DE5826003020046D2
:1C0B210020F71430F6148883A88220F507E6A88375830022E280F7E49322E022E3
:040B3D00758200229B
:00000001FF
