:2000DB0075E200AFE2747F5FF5E243E22975E300AFE274BF5FF5E2AFD174FB5FF5D175D1FA
:2000FB008043D10122AD82AE83AFF08D828E838FF0120F16FC60188C82C007C006C0051273
:10011B000D60D005D006D0070DBD00DF0E80DC22B0
:20012B00D2B4D2B322750D01AF0D150DEF70F922D2B4D2B3120130C2B4120130C2B302012D
:20014B0030C2B4D2B3120130D2B4020130AF827D007E00EF2FFFA2D792B4D2B3C007C00653
:20016B00C005120130C2B3120130D005D006D0070DBD00010EC3ED9408EE6480948040D314
:20018B00227F00D2B47D007E00EF2FFFD2B3C007C006C005120130D005D006D00730B40392
:2001AB00430701C2B3C007C006C005120130D005D006D0070DBD00010EC3ED9408EE648066
:2001CB00948040C58F8222D2B4D2B3120130A2B49200C2B3120130A200B3221201D29201EB
:0201EB00B3223D
:04000000020049327F
:01000B0032C2
:0100130032BA
:01001B0032B2
:0100230032AA
:01002B0032A2
:01003300329A
:01003B003292
:0300430002023383
:2000A200753600753700753800753900753A00753B00753C00E4F532F533F534F535787D01
:1900C2007600787E7600787F760078807600788176007882760002004641
:03004600020C4B5E
:2001ED0075E10075E206900064120CAAC2AF02380080FE43E10443E10243E10143D81FD2DB
:20020D00EAD2AF2275EE4075EF0075E48075E50075EBCC75D41275D21275EC0075ED0075F2
:20022D00EA4075DC0222C021C0E0C0F0C082C083C007C006C005C004C003C002C001C00040
:20024D00C0D075D00020D9030207B5743F55D9FFBF000302074DBF0202803ABF20030206A3
:20026D00CFBF2102800DBF22028017BF3002803F0207B375D300AFD274FC5F4402F5D202A6
:20028D0007B375D500AFD474FC5F4402F5D4788276000207B320DE030207B37880A6DB7812
:2002AD00817600AFD474F35F4408F5D40207B3AEDB7F00BE0805BF000280030206A39000CE
:2002CD0007E0FC7D00900006E0FB7A004DF522EA4CF5237E007F00900001E0F524900000FD
:2002ED00E0FD546060787420B524030206A77421B52402800A7422B524030206A780587501
:20030D002700752801752900C3E5229440E523940040067C407D008004AC22AD238C068D73
:20032D000785270D85280E85290F8E108F1190000075F000C007C006120EA6D006D007E560
:20034D0022C39EF522E5239FF523EE2527F527EF3528F5280206A77EFF7F000206A7E52415
:20036D0024F5500302069DE524240B83F582E524240F83F583E4737DB29D6A9D7E9A9D8B8C
:20038D00A6AF0604060506040306040404900003E0FDBD0102800ABD02028014BD03728006
:2003AD001E75273675280F7529807E127F00806575274875280F7529807E437F008056902E
:2003CD000002E0700F75278B75280F7529807E047F008041900002E0FDBD010F7527B975F6
:2003ED00280F7529807E187F00802A900002E0FDBD020F7527A375280F7529807E167F0083
:20040D00801375278F75280F7529807E147F0080047EFF7F00C3EE9522EF952350048E22A3
:20042D008F23C3E5229440E523940040067C407D008004AC22AD238C068D0785270D852896
:20044D000E85290F8E108F1190000075F000C007C006120EA6D006D007E522C39EF522E52D
:20046D00239FF523EE2527F527EF3528F5280206A7900002E0FD8D227523000206A7900032
:20048D0000E526F0C3E5229401E523940050030206A77E017F000206A7900002E0F526021B
:2004AD0006A70206A7900000E0FD541F7033900003E0FC7D00900002E0FB7A004205EA420A
:2004CD0004BD0116BC0013900F4FE493FD30E5030206A77EFF7F000206A77EFF7F00020690
:2004ED00A7900000E0FD53051FBD026A900004E0FDBD0102804FBD02028034BD030280196B
:20050D00BD81028034BD82028019BD8342ADD674BC5D4402F5D60206A7ADD674735DF5D61C
:20052D000206A7ADD474BC5D4402F5D40206A7ADD474735DF5D40206A7ADD274BC5D4402A4
:20054D00F5D20206A7ADD274735DF5D20206A77EFF7F000206A77EFF7F000206A7900000F9
:20056D00E0FD541F704D900003E0FC7D00900002E0FB7A004205EA4204BD0130BC002D90B0
:20058D000F4FE493FD30E51DE5A220E7FB75A15575A1AA75A9C143870275A15575A1AA754B
:2005AD00A9000206A77EFF7F000206A77EFF7F000206A7900000E0FD53051FBD0202800358
:2005CD00020677900003E0FC7D00900002E0FB7A004205EA4204ED4C60030206719000059B
:2005ED00E0FC7D00900004E0FB7A004205EA4204BD0105BC0002805DBD0205BC0002803F96
:20060D00BD0305BC00028021BD8105BC0002803ABD8205BC0002801CBD8343BC0040ADD64E
:20062D0074BF5D4403F5D68071ADD6747F5D440CF5D68066ADD474BF5D4403F5D4805BAD9D
:20064D00D4747F5D440CF5D48050ADD274BF5D4403F5D28045ADD2747F5D440CF5D27EFF3B
:20066D007F0080367EFF7F0080307EFF7F00802A900000E4F0900001F0C3E5229402E52399
:20068D00940040067E027F008010AE22AF23800A7EFF7F0080047EFF7F00BEFF0CBF0009AB
:2006AD007524FF75DCCF0207B3C374409EE49F40088EDD75DCC00207B375DD0075DCC0023C
:2006CD0007B37405B5240280597406B5246AC3E5229440E523940040067C407D008004AC80
:2006ED0022AD238C068D0785270D85280E85290F8E108F1190000075F000C007C006120EC4
:20070D00A6D006D007E522C39EF522E5239FF523EE2527F527EF3528F5288EDD63DC400290
:20072D0007B3748055E3FF7E00E5224207E52342068FE375DC02806E75DD0075DC0280666B
:20074D007420B5245B30DE5E750D00750E00750F0085DB1075110090010075F000120EA61D
:20076D00900100E0FF8F32900101E0FF8F33900102E0FF8F34900103E0FF8F35C3743F9591
:20078D003274429533740F9534E49535500AE4F5327533E1F534F53575DD0085DCDC80064C
:2007AD0075DD0085DCDCC2D930D82975DC0275D21275D41275E300C2DAC2D9C2D8787D7636
:2007CD0000787E7600787F7600788076007526007882760010DA028021E5DA30E21FE5A2B6
:2007ED0020E7FB75A15575A1AA75A9C143870275A15575A1AA75A900800375D8FFD0D0D08C
:20080D0000D001D002D003D004D005D006D007D083D082D0F0D0E0D02132AF82787D860615
:20082D00787D06EE243DF8A607787F06787DB640004004787D760022AD82AE83AFF08D82F5
:20084D008E838FF0120F16FC60188C820DBD00010EC007C006C005120827D005D006D00754
:20086D0080DC22E526700122787FE6600205367882E6600122787FE6FF700122EF24D840D8
:20088D0006E536249B506C753600787E86057E008F037C00EB2DFDEC3EFEC374409D7480B2
:2008AD008EF063F08095F05007787E7440C396FF787FE6C39FF6787EE6243DFE8E0D750E6E
:2008CD0000750F408F107511009000C075F000C007120EA6D007787EEF26F6787EB640001C
:2008ED004004787E76008FD5AFD474FC5FF5D478827601227880E670012278818607788139
:20090D0006EF2480F582E43400F583E0FFE53A6003020B1CBF5119900FD175F080C0071249
:20092D000845900FDA75F080120845D007020C39BF5619900FDD75F080C007120845900F2E
:20094D00DA75F080120845D007020C39BF450AC0071201EDD007020C39BF42028003020AC9
:20096D00BE750DA0750E86750F017510008532828533838534F0E535C007120E41AB827477
:20098D00302BF582120827750DA0750E86750F017510008532828533838534F0E535120DAC
:2009AD00BEAB82AC83ADF0FE750D10750E27E4F50FF5108B828C838DF0EE120E41AB8274C3
:2009CD00302BF582120827750D10750E27E4F50FF5108532828533838534F0E535120DBEBA
:2009ED00AB82AC83ADF0FE750DE8750E03E4F50FF5108B828C838DF0EE120E41AB8274305D
:200A0D002BF582120827750DE8750E03E4F50FF5108532828533838534F0E535120DBEAB4A
:200A2D0082AC83ADF0FE750D64E4F50EF50FF5108B828C838DF0EE120E41AB8274302BF5AE
:200A4D0082120827750D64E4F50EF50FF5108532828533838534F0E535120DBEAB82AC8380
:200A6D00ADF0FE750D0AE4F50EF50FF5108B828C838DF0EE120E41AB8274302BF5821208DD
:200A8D0027750D0AE4F50EF50FF5108532828533838534F0E535120DBEAB8274302BF5821F
:200AAD00120827900FDA75F080120845D007020C39E4BF540104FE60167441B53B02800F67
:200ACD00753800753A01753900753700020C39BF520F753800753A03753900753700020C24
:200AED0039EE60157441B53B10900FE375F080C007120845D007020C39BF4103020C399013
:200B0D000FE875F080C007120845D007020C397401B53A1E743F5FF537EF30E705753C012B
:200B2D008003753C00C00712013BD007753A02020C397402B53A028003020BD1E539701C1E
:200B4D008F82C0071201581201D2D0079202400CC00712014CD007E53804F5390538E53803
:200B6D00B537028003020C39E539701A900FE375F080C007120845D007E53C7039C0071201
:200B8D00014CD0078030758246C00712082775F00AE539842430F58212082775F00AE53985
:200BAD0084AEF074302EF582120827900FDA75F080120845D007753700753800753A00756B
:200BCD00390080687403B53A2FC00712013BD0078F82C0071201581201D2D0079202401380
:200BED00900FF875F080C00712084512014CD007753A00753A0480347404B53A2F743F5F52
:200C0D00F5377E00C3EE95375018C007C00612018C1208271201D2D006D007920250030E44
:200C2D0080E2C00712014CD007753A008F3B7880167880E67007AFD474F35FF5D422120C1A
:200C4D0081900005120CAA120CCC12012B1200DB12021112020075DD0075D30075D500D2A5
:140C6D00B2120870900FFF75F080120100C2B212090180EBA6
:200F36001201100102000040861A225700010102030109024300020100A0320904000001E3
:200F56000202010005240010010524010000042402020524060001070581031000400904C9
:200F76000100020A0000000705020240000007058202400000040309041403320030003170
:200F96000038002D0033002D00310037001603550053004200200074006F0020004900326D
:200FB60000430018035A00680069005900750061006E002000570061006E003236303030B7
:200FD600303030000D0A00312E302E31004F4B0D0A004E4F5420535550504F525445440DD1
:180FF6000A004641494C0D0A0054657374310D0A0000E10000000008D5
:200C810075A15575A1AAAFB974F85F4405F5B975A10022AE82AF83EE4F600D05A105A10569
:200CA100A11EBEFF011F80EF22AE82AF83EE4F60159003E8C007C006120C94D006D0071E6D
:200CC100BEFF011F80E72243C61022C29FD29EC29DC2CDC2CC438780750811750904E4F5F2
:200CE1000AF50B750D0AF50EF50FF510850882850983850AF0E50B120DBEAC828C0C750D9D
:200D01000AE4F50EF50FF510850882850983850AF0E50B120E4185820885830985F00AF554
:200D21000B74FB250C501574012508F508E43509F509E4350AF50AE4350BF50BAF89740FE2
:200D41005F4420F58943C9A0AF08C3E49FF58DD28ED299D29C2210980280FB85998222855F
:200D6100829910990280FB22AF8210990280FB8F992210980280FB8599822243C62022C27A
:200D8100C7D2C5D2C475C2982210C00280FB85C182228582C110C10280FB22AF8275A15562
:1D0DA10075A1AAEF600543B1018007AFB174FE5FF5B175A10075FF00228582FF22FA
:200DBE00F9E50D450E450F451060777800C308E51020E73BE50D25E0F50DE50E33F50EE5D6
:200DDE000F33F50FE51033F510E582950DE583950EE5F0950FE9951050D4C3E51013F51073
:200DFE00E50F13F50FE50E13F50EE50D13F50DE582950DFCE583950EFDE5F0950FFEE995B8
:200E1E00104007F98EF08D838C82C3E51013F510E50F13F50FE50E13F50EE50D13F50DD805
:030E3E00CEE922D8
:200E4100FB7A20E4FCFDFEFFE5822582F582E58333F583E5F033F5F0EB33FB4017DAE980EA
:200E610042E5822582F582E58333F583E5F033F5F0EB33FBEC33FCED33FDEE33FEEF33FF19
:200E8100EC950DED950EEE950FEF95104013EC950DFCED950EFDEE950FFEEF9510FF4382BB
:050EA10001DABEEB22A6
:06007800E478FFF6D8FD5C
:200EA600AD82AE83AFF08D128E138F14850D15850E16850F17A810A9118803890418B8FFF6
:200EC6000119EB4C60258515828516838517F0120F16FCA38582158583168D828E838FF0C1
:150EE600EC120EFBA3AD82AE8380CE8512828513838514F022C0
:200056007907E94400601B7A01901007780075A001E493F2A308B8000205A0D9F4DAF27531
:02007600A0FFE9
:1B0EFB0020F71130F6138883A88220F509F6A8837583002280FEF280F5F022F6
:20007E007800E84400600A790075A001E4F309D8FC7800E84400600C7900900100E4F0A380
:04009E00D8FCD9FAB7
:0D004900758182120F32E5826003020046CD
:1C0F160020F71430F6148883A88220F507E6A88375830022E280F7E49322E022EA
:040F320075820022A2
:00000001FF
