:04000000020059326F
:01000B0032C2
:0100130032BA
:01001B0032B2
:0100230032AA
:01002B0032A2
:01003300329A
:01003B003292
:0300430002019D1A
:01004B003282
:0300530002076140
:1B00B20078717600787276007873760078747600787576007876760002005692
:0300560002079509
:2000CD0075E200AFE2747F5FF5E243E22975E300AFE274BF5FF5E2AFD174FB5FF5D175D108
:2000ED008043D1012243E10443E10243E10143D81FD2EAD2AF2275EE4075EF0075E48075DB
:20010D00E50075EBCC75D41275D21275EC0075ED0075EA4075DC0222AD82AE83AFF0E4F55E
:20012D0018F519F51AF51B8D828E838FF0120B11FC8C1874012DFAE43EFB8F048A828B839A
:20014D008CF0120B11FA8A1974022DFAE43EFB8F048A828B838CF0120B11FA8A1A74032DF8
:20016D00FDE43EFE8D828E838FF0120B11FD8D1B851826851927851A28851B299042407544
:20018D00F00FE4120A3CAC82C3E49CF5C2D2EC22C020C0E0C0F0C082C083C007C006C00508
:2001AD00C004C003C002C001C000C0D075D00020D9030206EF743F55D9FFBF00030206B640
:2001CD00BF0202803ABF2003020639BF2102800DBF22028017BF3002803F0206ED75D3009C
:2001ED00AFD274FC5F4402F5D20206ED75D500AFD474FC5F4402F5D4787676000206ED207C
:20020D00DE030206ED7874A6DB78757600AFD474F35F4408F5D40206EDAEDB7F00BE080505
:20022D00BF0002800302060D900007E0FC7D00900006E0FB7A004DF508EA4CF5097E007F02
:20024D0000900001E0F50A900000E0FD546060787420B50A030206117421B50A02800A7465
:20026D0022B50A030206118058750D00750E01750F00C3E5089408E509940040067C087DFD
:20028D00008004AC08AD098C068D07850D26850E27850F288E298F2A90000075F000C007E3
:2002AD00C006120AA1D006D007E508C39EF508E5099FF509EE250DF50DEF350EF50E0206CC
:2002CD00117EFF7F00020611E50A24F55003020607E50A240B83F582E50A240F83F583E468
:2002ED0073E71C07D407E80407F510190504060406030306030404900003E0FDBD010280A8
:20030D000ABD02028014BD0372801E750D31750E0B750F807E127F008065750D43750E0B15
:20032D00750F807E437F008056900002E0700F750D86750E0B750F807E047F0080419000B9
:20034D0002E0FDBD010F750DB2750E0B750F807E0A7F00802A900002E0FDBD020F750D9E10
:20036D00750E0B750F807E147F008013750D8A750E0B750F807E147F0080047EFF7F00C348
:20038D00EE9508EF950950048E088F09C3E5089408E509940040067C087D008004AC08ADBC
:2003AD00098C068D07850D26850E27850F288E298F2A90000075F000C007C006120AA1D054
:2003CD0006D007E508C39EF508E5099FF509EE250DF50DEF350EF50E020611900002E0FD7E
:2003ED008D08750900020611900000E50CF0C3E5089401E509940050030206117E017F0022
:20040D00020611900002E0F50C020611020611900000E0FD541F7033900003E0FC7D009012
:20042D000002E0FB7A004205EA4204BD0116BC0013900B4AE493FD30E5030206117EFF7FB8
:20044D00000206117EFF7F00020611900000E0FD53051FBD026A900004E0FDBD0102804F54
:20046D00BD02028034BD03028019BD81028034BD82028019BD8342ADD674BC5D4402F5D62E
:20048D00020611ADD674735DF5D6020611ADD474BC5D4402F5D4020611ADD474735DF5D4C7
:2004AD00020611ADD274BC5D4402F5D2020611ADD274735DF5D20206117EFF7F000206112C
:2004CD007EFF7F00020611900000E0FD541F704D900003E0FC7D00900002E0FB7A00420543
:2004ED00EA4204BD0130BC002D900B4AE493FD30E51DE5A220E7FB75A15575A1AA75A9C1CA
:20050D0043870275A15575A1AA75A9000206117EFF7F000206117EFF7F00020611900000E6
:20052D00E0FD53051FBD020280030205E1900003E0FC7D00900002E0FB7A004205EA4204E4
:20054D00ED4C60030205DB900005E0FC7D00900004E0FB7A004205EA4204BD0105BC000241
:20056D00805DBD0205BC0002803FBD0305BC00028021BD8105BC0002803ABD8205BC00026F
:20058D00801CBD8343BC0040ADD674BF5D4403F5D68071ADD6747F5D440CF5D68066ADD4C8
:2005AD0074BF5D4403F5D4805BADD4747F5D440CF5D48050ADD274BF5D4403F5D28045AD6A
:2005CD00D2747F5D440CF5D27EFF7F0080367EFF7F0080307EFF7F00802A900000E4F090DD
:2005ED000001F0C3E5089402E509940040067E027F008010AE08AF09800A7EFF7F008004E8
:20060D007EFF7F00BEFF0CBF0009750AFF75DCCF0206EDC374089EE49F40088EDD75DCC089
:20062D000206ED75DD0075DCC00206ED7405B50A0280587406B50A69C3E5089408E50994DE
:20064D000040067C087D008004AC08AD098C068D07850D26850E27850F288E298F2A900004
:20066D000075F000C007C006120AA1D006D007E508C39EF508E5099FF509EE250DF50DEF2A
:20068D00350EF50E8EDD63DC408055748055E3FF7E00E5084207E50942068FE375DC0280EE
:2006AD003F75DD0075DC0280377420B50A2C30DE2F75260075270075280085DB29752A00DA
:2006CD0090010075F000120AA190010075F00012012575DD0085DCDC800675DD0043DC02A4
:2006ED00C2D930D82975DC0275D21275D41275E300C2DAC2D9C2D8787176007872760078BA
:20070D0073760078747600750C007876760010DA028021E5DA30E21FE5A220E7FB75A1552B
:20072D0075A1AA75A9C143870275A15575A1AA75A900800375D8FFD0D0D000D001D002D046
:20074D0003D004D005D006D007D083D082D0F0D0E0D02032C0E0C007C000C0D075D00030D0
:20076D00C01D78718607787106EF2431F8A6C17873067871B64000400478717600C2C0D0C2
:20078D00D0D000D007D0E0327F00C00712087C9000051208A51208C712097B1200CD12015A
:2007AD00031200F2D00775DD0075D30075D500E50C60FC7874E6602A78758606787506EE67
:2007CD002480F582E43400F583E0F582C00712098ED0077874167874E67007AED474F35E31
:2007ED00F5D47873E660010F7876E670C27873E6FE60BCEE24D84005EF249B50B27F00781B
:20080D007286047D008E027B00EA2CFCEB3DFDC374409C74808DF063F08095F050077872F3
:20082D007440C396FE7873E6C39EF67872E62431FD8D267527007528408E29752A00900044
:20084D00C075F000C007C006120AA1D006D0077872EE26F67872B640004004787276008E69
:0F086D00D5AED474FC5EF5D4787676010207BC64
:200B31001201100102000008861A225700010102030109024300020100A032090400000124
:200B51000202010005240010010524010000042402020524060001070581030800FF09041B
:200B71000100020A0000000705020240000007058202400000040309041403320030003179
:200B91000037002D0032002D00320035001403430048003500350034005F004300440043B1
:120BB100000A035F6CCF82816C526000E1000000000881
:20087C0075A15575A1AAAFB974F85F4405F5B975A10022AE82AF83EE4F600D05A105A10572
:20089C00A11EBEFF011F80EF22AE82AF83EE4F60159003E8C007C00612088FD006D0071E7F
:2008BC00BEFF011F80E72243C61022C29FD29EC29DC2CDC2CC438780752111752204E4F5C9
:2008DC0023F52475260AF527F528F5298521828522838523F0E5241209B9AC828C25752683
:2008FC000AE4F527F528F5298521828522838523F0E524120A3C85822185832285F023F56D
:20091C002474FB2525501574012521F521E43522F522E43523F523E43524F524AF89740FF1
:20093C005F4420F58943C9A0AF21C3E49FF58DD28ED299D29C2210980280FB85998222854F
:20095C00829910990280FB22AF8210990280FB8F992210980280FB8599822243C62022C283
:20097C00C7D2C5D2C475C2982210C00280FB85C182228582C110C10280FB22AF8275A1556B
:1D099C0075A1AAEF600543B1018007AFB174FE5FF5B175A10075FF00228582FF2203
:2009B900F9E52645274528452960777800C308E52920E73BE52625E0F526E52733F527E5FE
:2009D9002833F528E52933F529E5829526E5839527E5F09528E9952950D4C3E52913F52982
:2009F900E52813F528E52713F527E52613F526E5829526FCE5839527FDE5F09528FEE995E0
:200A1900294007F98EF08D838C82C3E52913F529E52813F528E52713F527E52613F526D82D
:030A3900CEE922E1
:200A3C00FB7A20E4FCFDFEFFE5822582F582E58333F583E5F033F5F0EB33FB4017DAE980F3
:200A5C0042E5822582F582E58333F583E5F033F5F0EB33FBEC33FCED33FDEE33FEEF33FF22
:200A7C00EC9526ED9527EE9528EF95294013EC9526FCED9527FDEE9528FEEF9529FF4382FC
:050A9C0001DABEEB22AF
:06008800E478FFF6D8FD4C
:200AA100AD82AE83AFF08D2B8E2C8F2D85262E85272F852830A829A92A8803890418B8FFEC
:200AC1000119EB4C6025852E82852F838530F0120B11FCA385822E85832F8D828E838FF056
:150AE100EC120AF6A3AD82AE8380CE852B82852C83852DF02287
:200066007907E94400601B7A01900BBC780075A001E493F2A308B8000205A0D9F4DAF27571
:02008600A0FFD9
:1B0AF60020F71130F6138883A88220F509F6A8837583002280FEF280F5F022FF
:20008E007800E84400600A790075A001E4F309D8FC7800E84400600C7900900100E4F0A370
:0400AE00D8FCD9FAA7
:0D005900758176120B2DE5826003020056C2
:1C0B110020F71430F6148883A88220F507E6A88375830022E280F7E49322E022F3
:040B2D0075820022AB
:00000001FF
